:020000040800F2
:100000003820002095510008A9140008AB140008FE
:10001000AF140008B1140008B31400080000000079
:10002000000000000000000000000000B5140008FF
:10003000B714000800000000B9140008BB14000841
:10004000295300082D530008315300083553000888
:10005000395300083D530008E926000845530008BD
:10006000495300084D5300085153000855530008E8
:10007000595300085D530008615300086553000898
:10008000695300086D530008715300087553000848
:10009000795300087D5300088153000885530008F8
:1000A000895300088D5300089153000895530008A8
:1000B000995300089D530008A1530008A553000858
:1000C000A9530008AD530008B1530008B553000808
:1000D000B9530008BD530008CB300008B90E000822
:1000E0001D270008CD530008D1530008D553000840
:1000F000D9530008DD530008E1530008E553000818
:10010000E9530008ED530008F1530008F5530008C7
:1001100019330008FD530008015400080554000875
:10012000095400080D540008115400081554000823
:10013000195400081D5400082154000825540008D3
:10014000295400082D540008315400083554000883
:10015000395400083D54000841540008C72D0008D8
:10016000495400084D5400085154000855540008E3
:10017000595400085D540008615400086554000893
:10018000695400086D540008DFF8140D00687047CA
:10019000DFF8100D00687047DFF80C0D006870473D
:1001A000DFF8080D00687047DFF8A40D007870478D
:1001B00000B583B00121012000F084FF4FF480706E
:1001C000009001208DF8040000208DF80600032027
:1001D0008DF8050000208DF8070000A9DFF8D00C8D
:1001E00000F0AEFFDFF86C0D4FF48071018000F07D
:1001F00087FA07BD00B585B0DFF8B80C807910F03C
:100200000F0030308DF80000DFF8A80CC07910F036
:100210000F0030308DF80100DFF8980C007A10F0F4
:100220000F0030308DF80200DFF8880C407A10F0B3
:100230000F0030308DF80300DFF8780C807A10F072
:100240000F0030308DF80400DFF8680CC07A10F031
:100250000F0030308DF80500DFF8580C007B10F0EF
:100260000F0030308DF8060000208DF8070000A840
:1002700000F0FCFFDFF8281C086005B000BD00B5E9
:1002800085B0DFF8300C807910F00F0030308DF839
:100290000000DFF8200CC07910F00F0030308DF82E
:1002A0000100DFF8100C007A10F00F0030308DF8EC
:1002B0000200DFF8000C407A10F00F0030308DF8AB
:1002C0000300DFF8F00B807A10F00F0030308DF86B
:1002D000040000208DF8050000A800F0C7FFDFF83B
:1002E000C81B086005B000BD00B585B0DFF8C40BC1
:1002F000807910F00F0030308DF80000DFF8B40B7B
:10030000C07910F00F0030308DF80100DFF8A40B39
:10031000007A10F00F0030308DF80200DFF8940BF7
:10032000407A10F00F0030308DF80300DFF8840BB6
:10033000807A10F00F0030308DF8040000208DF826
:10034000050000A800F092FFDFF8601B086005B010
:1003500000BD80B5DFF8000C0078002816D0022818
:1003600000F0978036D3042800F0C880C0F09F804A
:10037000062800F01181C0F0E880082800F088818C
:10038000C0F02F81092800F0A481B8E1002000F01E
:10039000AFFBDFF8C80B00210170002240F22551AD
:1003A000DFF8BC0B01F007F8DFF8B80B4FF48071F1
:1003B0000180012240F22771DFF8A40B00F0FBFF5F
:1003C000DFF8940B0121017001F07DF8DFF8981B34
:1003D000088094E1DFF8940B007833281DD100F0F9
:1003E000F8F9002809D001F06EF8DFF87C1B0880CE
:1003F000DFF8640B022101700FE0DFF8740B0021BD
:100400000170DFF86C0B00214170DFF84C0B00210C
:100410000170DFF83C0B0121017001F054F880B24B
:10042000DFF8441B0988401A1F2831DBDFF8280B4E
:1004300000210170DFF83C0B0078DFF83C1B405CCA
:10044000DFF8381B0860DFF82C0B0078401CDFF861
:10045000241B0870DFF81C0B00780B2818D1DFF87C
:10046000140B0021017001F02EF8DFF8FC1A08804F
:10047000DFF8E40A09210170DFF8D40A01210170D4
:10048000DFF8EC0A00210170DFF8E40A0021417076
:1004900035E101F018F880B2DFF8CC1A0988401A6B
:1004A000972803DBDFF8B00A0321017027E1DFF8AA
:1004B000D00A03210170DFF8C80A007800F018FBA9
:1004C000DFF8A80A64210170DFF8900A00210170AA
:1004D000DFF8900A4FF480710180012240F2277109
:1004E000DFF87C0A00F067FF00F0EDFFDFF8781A14
:1004F0000880DFF8640A0721017000E1DFF8800A54
:1005000004210170DFF8780A007800F0F1FADFF8D2
:100510005C0A64210170DFF8440A00210170DFF8F1
:10052000440A4FF480710180012240F22771DFF804
:10053000300A00F040FF00F0C6FFDFF82C1A0880F8
:10054000DFF8140A07210170D9E0DFF8340A052129
:100550000170DFF82C0A007800F0CAFADFF80C0A04
:1005600064210170DFF8F40900210170DFF8F4095B
:100570004FF480710180012240F22771DFF8E00919
:1005800000F019FF00F09FFFDFF8DC190880DFF8AA
:10059000C80907210170B2E0012000F0A9FADFF8D4
:1005A000CC0964210170DFF8B40900210170DFF883
:1005B000B4094FF480710180012240F22771DFF805
:1005C000A00900F0F8FEDFF8B8090121017000F081
:1005D0007AFFDFF894190880DFF87C0907210170A1
:1005E0008DE0DFF88809007833283FD1DFF89009E3
:1005F0000078012806D100F026F9DFF85C0908210F
:10060000017033E0DFF87809007803280AD1FFF79A
:10061000F1FDDFF83C0900210170DFF83C090421FD
:10062000017023E0DFF85809007804280AD1FFF7A9
:1006300026FEDFF81C0900210170DFF81C090521E6
:10064000017013E0DFF83809007805280AD1FFF7B8
:100650004BFEDFF8FC0800210170DFF8FC080621E2
:10066000017003E0DFF8F0080821017000F02BFFB3
:1006700080B2DFF8F4180988401A972807DBDFF802
:10068000D80808210170DFF8C8080121017036E0A0
:10069000022000F02DFADFF8D40864210170DFF8A1
:1006A000C4084FF480710180012240F22771DFF805
:1006B000B00800F080FEDFF8A40800210170DFF828
:1006C00098080921017000F0FEFEDFF89C180880F0
:1006D00015E000F0F8FE80B2DFF88C180988401AA7
:1006E000B0F5FA7F0BDDDFF8700800210170DFF84C
:1006F000800800210170DFF878080021417001BDF9
:1007000000B587B00121082000F0DCFC01215FF476
:10071000802000F0E6FC07220821DFF8680800F0DE
:1007200078FD07220921DFF85C0800F072FD022045
:100730008DF8080003208DF8090000208DF80A00CC
:1007400001208DF80B004FF48070019001A9DFF8B3
:10075000340800F0F5FC4FF40070019001A9DFF8B7
:10076000240800F0EDFC0121DFF8F40700F00EFE94
:100770004FF4964003900020ADF810000020ADF833
:1007800012000020ADF814000020ADF818000C2075
:10079000ADF8160003A9DFF8C80700F06BFD4FF4B1
:1007A000A06000F095FE27208DF8000000208DF855
:1007B000010000208DF8020001208DF8030000A840
:1007C00000F08BFE0121DFF8980700F0D1FD07B0A3
:1007D00000BD38B500240025DFF8AC073A210170D0
:1007E000DFF8A407DFF8941709684170DFF898076D
:1007F0000621817003200400302C05DADFF8880719
:1008000023212154641CF7E72F21DFF8800700F033
:1008100044F9DFF874170886DFF86C07032180F8C5
:100820003210332D0DDADFF88C06285CDFF858170C
:10083000695C884201D16D1CF3E76420040000204C
:1008400000E0012032BD10B50024DFF85806002179
:100850000160DFF86006807930F0F00000EE100AE9
:10086000B8EEC00ADFF8280780ED000ADFF844067A
:10087000C07930F0F00000EE100AB8EEC00ADFF8E0
:10088000100780ED010ADFF82C06007A30F0F00046
:1008900000EE100AB8EEC00ADFF8F40680ED020A96
:1008A000DFF81006407A30F0F00000EE100AB8EEE3
:1008B000C00ADFF8DC0680ED030ADFF8F805807A6D
:1008C00030F0F00000EE100AB8EEC00ADFF8C00603
:1008D00080ED040ADFF8DC05C07A30F0F00000EEAD
:1008E000100AB8EEC00ADFF8A80680ED050ADFF8A6
:1008F000C405007B30F0F00000EE100AB8EEC00A2C
:10090000DFF88C0680ED060ADFF8A805407B30F0A2
:10091000F00000EE100AB8EEC00ADFF8740680EDB1
:10092000070ADFF89005807B30F0F00000EE100A37
:10093000B8EEC00ADFF8580680ED080ADFF8500666
:10094000006800F009FE0022DFF8483600F03CFEA7
:1009500000F010FFDFF838160860DFF83406406852
:1009600000F0FAFD0022DFF8303600F02DFE00F036
:1009700001FFDFF81C164860DFF81406806800F0FD
:10098000EBFD0022DFF8143600F01EFE00F0F2FE50
:10099000DFF8FC158860DFF8F805C06800F0DCFDC2
:1009A0000022DFF8FC3500F00FFE00F0E3FEDFF878
:1009B000E015C860DFF8D805006900F0CDFD002221
:1009C000DFF8E03500F000FE00F0D4FEDFF8C015DF
:1009D0000861DFF8BC05406900F0BEFD0022DFF8C9
:1009E000C83500F0F1FD00F0C5FEDFF8A415486140
:1009F000DFF89C05806900F0AFFD0022DFF8AC3520
:100A000000F0E2FD00F0B6FEDFF884158861DFF843
:100A10008005C06900F0A0FD0022DFF8943500F0E9
:100A2000D3FD00F0A7FEDFF86815C861DFF86005A8
:100A3000006A00F091FD0022DFF8783500F0C4FD77
:100A400000F098FEDFF84815086200200400092C29
:100A500015DADFF8500490ED000AB8EEC00ADFF8AE
:100A6000300510EB8400D0ED000A30EE200ABDEE18
:100A7000C00ADFF8300480ED000A641CE7E710BD0F
:100A800002001078521C491E012904DB13785840DB
:100A9000521C491EF8E7C0B27047F0B5020041F29F
:100AA00021074FF6FF7C604601291FDB92F800E02A
:100AB00073465FF0000E7446082C14DADBB2D4F1F2
:100AC000070E53FA0EFE1EF0010E754680B25FEA65
:100AD000D03E1FFA8EFE7646400096EA050F00D003
:100AE0007840641CE8E7521C491EDDE780B2F0BD87
:100AF00038B50400E4B2002C0DD0022C00F0EB80DD
:100B0000C0F09F80042C00F05281C0F01181052CB0
:100B100000F08981C3E1DFF8A0043A210170DFF819
:100B20009804DFF8581409684170DFF88C048121BB
:100B30008170DFF884045021C170DFF87C04B1219A
:100B40000171DFF8740482214171DFF86C042821FF
:100B50008171DFF86404D221C171DFF85C04532194
:100B60000172DFF85404B4214172DFF84C04B8215B
:100B70008172DFF844043521C172DFF83C04D421CE
:100B80000173DFF83404D7214173DFF82C04CF213F
:100B90008173DFF82404D721C173DFF81C04C92155
:100BA0000174DFF81404D2214174DFF80C04C5216C
:100BB0008174DFF804045321C174DFF8FC03502171
:100BC0000175DFF8F403D2214175DFF8EC03CF2182
:100BD0008175DFF8E403CA21C175DFF8DC03C521A4
:100BE0000176DFF8D403C3214176DFF8CC03D421AA
:100BF0008176DFF8C403A921C176DFF8BC030321A5
:100C000001771A21DFF8B403FFF73AFFDFF8A813E2
:100C100048771E200500302D05DADFF89C032321DC
:100C200029546D1CF7E72F21DFF89403FFF735FFF8
:100C3000DFF884130886DFF88003032180F8321080
:100C40002DE1DFF874033A210170DFF86C03DFF85F
:100C50002C1309684170DFF8600381218170DFF88F
:100C60005803D221C170DFF85003B2210171DFF8BF
:100C7000480382214171DFF8400344218171DFF88C
:100C80003803B721C171DFF8300328210172DFF882
:100C90002803A9214172DFF8200303218172082172
:100CA000DFF81803FFF7ECFEDFF80C13C8720C2016
:100CB0000500302D04DAC048232129546D1CF8E7C3
:100CC0002F21BF48FFF7E9FEBB490886BA48032138
:100CD00080F83210E3E0B8483A210170B648A749DD
:100CE00009684170B44881218170B3484221C170C4
:100CF000B14830210171B048032141710321AF484F
:100D0000FFF7BEFEAC49887107200500302D04DADC
:100D1000A948232129546D1CF8E72F21A848FFF783
:100D2000BCFEA5490886A448032180F83210B6E02D
:100D3000A1483A210170A0489049096841709E4835
:100D4000812181709C48D221C1709B48B2210171E0
:100D5000994882214171984830218171964830210B
:100D6000C1719548282101729348A9214172924886
:100D70000321817290486021C17209218F48FFF7D9
:100D80007FFE8D4908730D200500302D04DA8A4856
:100D9000232129546D1CF8E72F218948FFF77DFE98
:100DA000854908868448032180F8321077E082481C
:100DB0003A21017080487149096841707E4881215B
:100DC00081707D48D221C1707B48B22101717A487F
:100DD0008221417178484421817177483021C17165
:100DE0007548282101727448A92141727248032173
:100DF000817208217148FFF743FE6F49C8720C20C9
:100E00000500302D04DA6C48232129546D1CF8E7C5
:100E10002F216B48FFF741FE67490886664803218A
:100E200080F832103BE064483A210170624853492F
:100E3000096841706048812181705F48D221C1708A
:100E40005D48B22101715C48822141715A484421B8
:100E500081715948B221C171574828210172564801
:100E6000A921417254480321817208215348FFF798
:100E700007FE5149C8720C200500302D04DA4E4897
:100E8000232129546D1CF8E72F214D48FFF705FE5B
:100E9000494908864848032180F83210FFE731BDF0
:100EA000FC170020F4170020001800200418002070
:100EB000000002406016002010B540F2255128487D
:100EC00000F0A4FA012815D12848007840280BDA50
:100ED00026480478601C25490870214800F067FA0C
:100EE000E4B22349605405E0002240F225511C4839
:100EF00000F061FA40F22771194800F087FA0128E2
:100F000024D11648007840280DDA144800782A4980
:100F1000415C89B2124800F046FA10480078401C43
:100F20000E49087012E00B484FF4807101800022D6
:100F300040F227710A4800F03EFA0C480021017087
:100F4000012240F22551064800F035FA10BD00009C
:100F5000DD0000201A000240351800203318002060
:100F600000480040180002401C18002032180020E1
:100F70006016002034180020C4000020F81700205C
:100F800036180020000C0240C8160020C9160020A8
:100F9000FC16002084D79741D012634180842E41F3
:100FA000006AF8400088C34000408F40000059406C
:100FB000000024400000F03F941600209716002007
:100FC00095160020F0B40021002200230224002501
:100FD0000226DFF84C713F6817F00C0739000F004C
:100FE000002F04D0042F06D0082F08D03CE0DFF8F3
:100FF000387107603BE0DFF83471076037E0DFF8F5
:1010000024713F68C7F380573D00DFF818713F68CF
:1010100017F03F073E00002D0DD0DFF81071B7FB31
:10102000F6F7DFF800C1DCF800C0CCF3881C0CFB3D
:1010300007F73B000CE0DFF8F070B7FBF6F7DFF8DE
:10104000E4C0DCF800C0CCF3881C0CFB07F73B00C5
:10105000DFF8D0703F68C7F301477F1C7F003C007A
:10106000B3FBF4F7076002E0DFF8BC700760DFF85D
:10107000B0703F6817F0F00739000909DFF8B07069
:10108000CF5D3A000768D7404760DFF894703F684B
:1010900017F4E0573900890ADFF89470CF5D3A0001
:1010A0004768D74087601E4F3F6817F46047390094
:1010B000490BDFF87C70CF5D3A004768D740C760C6
:1010C000F0BC7047C9B2002905D01A4A1268024321
:1010D000184B1A6004E0174A12688243154B1A60D5
:1010E0007047C9B2002905D0134A12680243124B57
:1010F0001A6004E0104A126882430F4B1A6070476E
:10110000C9B2002905D00D4A126802430B4B1A6080
:1011100004E00A4A12688243084B1A6070470000D4
:1011200008380240043802400024F40000127A001B
:10113000B4000020303802404038024044380240B9
:10114000F0B400220023002400252A00102A4AD2ED
:10115000012595402B000D681D402C009C4240D17C
:10116000056803261700FFB27F00BE40B543056047
:1011700005680E791700FFB27F00BE403543056059
:101180000D79012D02D00D79022D1AD18568032623
:101190001700FFB27F00BE40B543856085684E7979
:1011A0001700FFB27F00BE403543856045680126C9
:1011B0009640B543456045688E799640B6B2354352
:1011C0004560C56803261700FFB27F00BE40B543E7
:1011D000C560C568CE791700FFB27F00BE403543B9
:1011E000C560521CB2E7F0BC7047020000201369D2
:1011F00089B20B4202D00123180001E0002318003D
:10120000C0B27047D2B2002A01D0018300E041830E
:101210007047F0B400230024D2B211F00705EDB2FC
:10122000AD0012FA05F52B0089B2CD1010EB850543
:1012300089B2CE1010EB8606366A0F2711F0070C24
:101240005FFA8CFC5FEA8C0C17FA0CF7BE432E6237
:1012500089B2CD1010EB85052D6A1D432C0089B293
:10126000CD1010EB85052C62F0BC70470A220021DE
:1012700000F054BB2DE9F04385B004000D005FF091
:101280000009002600275FF00008A8890028208AAE
:10129000814639F44059E88850EA0909A4F81090C9
:1012A000A0898146314810EA0909A888298908439C
:1012B0006989084350EA0909A4F80C90A08A81467C
:1012C00039F44079A88950EA0909A4F8149000A8D3
:1012D000FFF778FE2348844202D02348844202D19B
:1012E0000398060001E002980600A089000408D5D2
:1012F000192000FB06F029684900B0FBF1F0070057
:1013000007E0192000FB06F029688900B0FBF1F026
:1013100007006420B7FBF0F0000181465FEA191076
:10132000642101FB10708046A08900040AD55FEAA1
:10133000C80032306421B0FBF1F010F0070050EA31
:10134000090909E05FEA081032306421B0FBF1F0CE
:1013500010F00F0050EA0909A4F8089005B0BDE8A4
:10136000F08300000010014000140140F3E9FFFF8A
:10137000C9B2002904D0828952F40052828104E06B
:1013800082894DF6FF731A4082817047C9B20029E5
:1013900004D0828952F40042828103E0828952049F
:1013A000520C82817047CA05D20D828070478088B6
:1013B000C005C00D7047F0B40023002400250026AE
:1013C00089B240F66A17B94206000F00FFB27F09E2
:1013D000FFB23B0089B211F01F073C000127A74074
:1013E0003D00012B01D10C3604E0022B01D1103657
:1013F00000E01436D2B2002A03D037682F4337609A
:1014000002E03768AF433760F0BC704770B4020049
:10141000002300250024002089B240F66A16B1425C
:101420000E00F6B27609F6B2340089B211F01F064A
:101430003500012616FA05F5012C02D196893540B2
:1014400006E0022C02D1168A354001E0968A35402A
:1014500089B20E0AB6B23300012616FA03F31688D3
:101460003340002D04D0002B02D00126300001E0D3
:1014700000263000C0B270BC704710B450F8041B96
:1014800081B102681218001D50F8043BDC0744BF0C
:10149000A9F10104E31852F8044B43F8044B091F67
:1014A000F9D1EBE710BC7047704700BF7047FEE70B
:1014B000FEE7FEE770477047704704480088401C0D
:1014C0000249088070470148008870471A180020B8
:1014D0001C4901431C4A11607047F0B400230021ED
:1014E0000F22C478002C21D0174C246814F4E06437
:1014F000D4F5E064240A2300D3F104042100D2B21D
:101500001A4144788C4023008478144023431B0103
:1015100004780E4D6355047864110D4D012607784B
:1015200017F01F07BE4045F8246009E004786411F5
:10153000084D0126077817F01F07BE4045F82460C4
:10154000F0BC70470000FA050CED00E000E400E09C
:1015500000E100E080E100E05FF0FF0C1CEAD05108
:1015600014BF614506E0C110400721F0E04101F1E0
:101570006051704779B900F0004100020AD0B0FA1A
:1015800080FC00FA0CF001F16051A1EB0C5101EB71
:10159000D0214005704741020CBF40F4E0016FF0DC
:1015A00000010020704750F8041B61B150F8042B73
:1015B000D30744BFA9F101039A18002342F8043B62
:1015C000091FFAD1EFE77047B0B581EA030C0CF0C0
:1015D000004C40F2FF7515EA11541DBF15EA135770
:1015E000AC42AF4239E0E41923EA455343F4801397
:1015F000C90241F0004141EA505EC7021100A7FB59
:10160000020200284FF00000EEFB01204FF0000125
:10161000E3FB072118BF42F00102401800214941B5
:10162000E3FB0E01A4F580640F0302D25200404197
:10163000494154F101046CDD470872F1004250F158
:10164000000051EB0451A1F580115CBF41EA0C018F
:10165000B0BD4CEA05510020B0BD05EA1357AC42BD
:1016600014BFAF4241E050EA410E1CBF52EA430EA4
:1016700002E061460020B0BD24423C441BD15FEA39
:10168000070EF6D0090302BF01460020AEF1140E8A
:10169000B1FA81F7AEEB070401FA07FE0C37C7F188
:1016A000200100FA07F7C8404EEA000E23EA45532E
:1016B00043F48013A2E733F00043B3FA83F704BF87
:1016C000B2FA82FE77440B3FE41BB7F1200E2FBF26
:1016D00002FA0EF3BB40C7F1200E22FA0EFE38BF0D
:1016E00043EA0E03BA40641C82E750EA410E14BF7D
:1016F00052EA430E6FF000014FF4001717EB430F4F
:101700008ABF194617EB410FB5E74CEA0551002097
:10171000B0BDD4F10104B4F120070FDAC4F1200701
:10172000520828BF42F0010210FA07F501FA07F744
:10173000E1BF2A43E0403843E1400FE0352C98DC1C
:10174000C7F1200452EA400220FA07F218BF42F023
:10175000010231FA07F0A1400A43002172F1004270
:1017600050F1000051EB0C01B0BD0268531C036046
:10177000117070474FEAF17CBCF1E04C2CBFBCF516
:10178000001F11E05FEA4C0C34BFBCF17F5F2EE01C
:101790005FEA9C0C4FEA0C1C4FEA3C0CC10071F153
:1017A00000414CEB50707047C90241EA5051C002F1
:1017B00018BF41F0010141F000414FEA6C50C0F107
:1017C0000900212810D240EACC7CCCF1200C11FA7F
:1017D0000CF070F10040CCF1200C21FA0CF00CF070
:1017E000004C40EB0C0070474FEACC70704749004A
:1017F00011F5001F04D84FEACC10FF30C005704728
:10180000C81770472DE9F04F85B080460D46144645
:101810001E001CBF00203060474600E07F1C387867
:1018200000F0A6F80028F9D138782D2816BF2B280B
:1018300017F8019B4FF02B09002C44D4012C42D007
:10184000252C40DA012C0ADB102C04BF3878302814
:1018500002BF787840F0200078280ED10AE038786E
:10186000302818BF0A2408D1787840F02000782862
:1018700002D11024BF1C00E00824039700E07F1C65
:1018800038783028FBD002970FF294004FF0000A0E
:101890008DF8040009E09DF80410CDF800A0401A6E
:1018A0005FFA80FB04FB0ABA7F1C387800F06AF804
:1018B000014622460FF2680000F06EF80028EAD1D7
:1018C0000398B84204D10DB1C5F80080002022E091
:1018D0000FF274010298615C381A401A13D401287F
:1018E00007DABAEB0B0004D30099B0FBF4F088429E
:1018F00009D000F07DF8222101600EB10120306096
:101900004FF0FF3A04E0B9F12D0F08BFCAF1000A09
:1019100005B12F60504605B0BDE8F08F002371E798
:101920003031323334353637383961626364656655
:101930006768696A6B6C6D6E6F70717273747576BF
:101940007778797A0000000000002115110E0D0C47
:101950000B0B0A0A090909090908080808080808F8
:10196000070707070707070707070707070000001C
:1019700010B50446012000F041F82046BDE81040B3
:1019800000F04EB810B50446012000F037F82046AC
:10199000BDE8104000F04EB8C9B2830706D0521E11
:1019A00022D310F8013B9942F7D11FE0083A13D334
:1019B00002F1040241EA012141EA014150F8043BED
:1019C000121F21BF4B40A3F1013C2CEA030C1CF079
:1019D000803FF3D0C9B2001F083210F8013B521EFD
:1019E00028BF91EA030FF8D818BF0120401E7047A6
:1019F000014800F025B80000D800002010B50446CA
:101A0000DFF8180000F01CF850F8240010BD80B575
:101A1000DFF8080000F014F8806902BD080000201B
:101A2000A0F10901052901D3202801D10120704727
:101A300000207047A0F141011A2938BF20307047BB
:101A40007047000040B2002809D540B210F00F02E4
:101A5000DFF8D039D2180B0102F8043C04E040B2A0
:101A6000DFF8C4290B018354704710B50400B4F1AA
:101A7000807F01D3012013E02002000A401EDFF81E
:101A8000AC1908600F215FF0FF30FFF7DBFFDFF8D4
:101A9000A00900210160DFF89C09072101600020F6
:101AA00010BD10B50024DFF89009FFF78BFADFF8BE
:101AB000880940686421B0FBF1F0FFF7D6FF00F021
:101AC00026F800F059FEFEF744FC00F061F900F042
:101AD000C1FF00F097F800F01BF901F062FA01F085
:101AE000BFFBDFF8580900780128EAD1DFF84C097C
:101AF00000210170002000F021FF012801D1002108
:101B000000E00121C9B2002000F012FED9E780B543
:101B100000F00FF800F028FD01F052FCFEF748FB42
:101B200000F02EF901F0D5F900F024FF01F032FBAE
:101B300001BD00B585B001210620FFF7C3FA0120E1
:101B40008DF8040000208DF8060001208DF80700B4
:101B500002208DF805004FF48040009000A9DFF8C6
:101B6000E008FFF7EDFA0420009000A9DFF8D408A0
:101B7000FFF7E6FA1020009000A9DFF8C808FFF789
:101B8000DFFA4FF40060009000A9DFF8B408FFF717
:101B9000D7FA01210120FFF795FA01214FF4804087
:101BA000FFF7AEFA00208DF8040000208DF8070042
:101BB0000120009000A9DFF89008FFF7C1FA00218A
:101BC000002001F0F5FE0120039000208DF81000A8
:101BD00008208DF8110001208DF8120003A801F0F3
:101BE00011FF06208DF808000F208DF809000F2046
:101BF0008DF80A0001208DF80B0002A8FFF76DFC9C
:101C000005B000BD10B50024FFF75DFC80B2DFF821
:101C10003C180988401A652879DBDFF83408006829
:101C2000022190FBF1F202FB1102002A6FD101F0B8
:101C30002FF901F030F90100DFF8180801F048FF32
:101C4000002802D10020040046E001F024F9010040
:101C5000DFF8040801F03CFF002802D10120040055
:101C60003AE001F018F90100DFF8F00701F030FF69
:101C7000002802D1022004002EE001F00CF901003E
:101C8000DFF8DC0701F024FF002802D10320040064
:101C900022E001F000F90100DFF8C80701F018FFA9
:101CA000002802D10420040016E001F0F4F801003D
:101CB000DFF8B40701F00CFF002802D10520040072
:101CC0000AE001F0E8F80100DFF8A00701F000FFEA
:101CD000002801D10620040001F0DAF8002801D123
:101CE0000620040001F0D4F802002300D2B2DFF88D
:101CF0008017DFF8800701F00DFFDFF8781700206C
:101D000001F007F8FFF7DFFBDFF84017088010BD90
:101D100070B584B00024FFF7D6FB80B2DFF8581707
:101D20000988401AB0F57A7F29DDDFF824070068BA
:101D3000022190FBF1F202FB1102012A1FD1FEF7F2
:101D40002FFA0500FEF728FA0600FEF71DFA02003A
:101D5000DFF82807029001950096DFF82437DFF8B6
:101D60002417DFF8240701F0D5FEDFF81C17002048
:101D700000F0CFFFFFF7A7FBDFF8FC1608807FBD60
:101D800080B5DFF808270021002001F0C9FC01BD63
:101D900010B58AB0FFF797FB80B2DFF8F416098818
:101DA000401A6528C0F2C880FEF7FEF900284AD123
:101DB000FEF7EAF90200DFF8DC1603A801F0AAFE3C
:101DC000DFF8D4260221002001F0AAFCFEF7E0F99A
:101DD00002000320029001200190092000900A23B4
:101DE0000221042001F0B9FCDFF8B00600781428C5
:101DF0000CDADFF8AC06DFF8AC1609680160DFF832
:101E00009C060078401CDFF89416087000F098F8E3
:101E100000F060FADFF890260621002001F080FC37
:101E2000DFF858260621082001F07AFCDFF87C262E
:101E30000721002001F074FCDFF87426072106203A
:101E400001F06EFC10E0DFF86C1603A801F062FEF2
:101E5000DFF864260221002001F062FCDFF858263A
:101E60000321002001F05CFC03AA0121002001F005
:101E700057FC01F00DF8002813D0DFF840260421AC
:101E8000002001F04DFCDFF838260521002001F08C
:101E900047FC01F000F802000521052001F040FC9C
:101EA0000BE0DFF820260421002001F039FCDFF8E8
:101EB00008260521002001F033FC01F01FFA00285C
:101EC0003AD0DFF8F4250621002001F029FC1BA1FF
:101ED00003A801F039FE1722DFF8EC1503A801F082
:101EE00055FEDFF8E8250321002001F019FCDFF89A
:101EF000D8250321072001F013FC00200400E4B2E0
:101F00000A2C0BDAE4B2DFF8C805E4B2DFF8B81542
:101F1000615C215400F0DEF9641CF0E7002004004D
:101F2000E4B2402C06DAE4B2DFF89C05002121542B
:101F3000641CF5E701F0E9F90AB010BD00000000EB
:101F400030B5DFF860050068DFF854150968401AFD
:101F5000DFF880150860DFF87C0500680F2815DAC7
:101F6000DFF8700590ED000AB8EEC00A10EE100A16
:101F7000FFF7F2FADFF86025DFF86035FFF724FBA2
:101F8000FFF7F8FBDFF858150860F4E0DFF84405C8
:101F90000068112801DB012000E00020DFF8341583
:101FA0000968232901DA012100E00021C0B20842BA
:101FB00017D0DFF8200500680F3801F01DFEDFF8AC
:101FC0002425DFF82435FFF7FFFADFF82025DFF8B6
:101FD000203501F027FEFFF7CDFBDFF80415086080
:101FE000C9E0DFF8F00400681B2801DB012000E0F5
:101FF0000020DFF8E0140968232901DA012100E05C
:102000000021C0B2084217D0DFF8C80400681938B0
:1020100001F0F2FDDFF8DC24DFF8DC34FFF7D4FA5E
:10202000DFF8D824DFF8D83401F0FCFDFFF7A2FB7D
:10203000DFF8AC1408609EE0DFF8980400682528FB
:1020400001DB012000E00020DFF888140968642922
:1020500001DA012100E00021C0B2084217D0DFF808
:1020600074040068233801F0C7FDDFF89824DFF816
:102070009834FFF7A9FADFF89424DFF8943401F0DC
:10208000D1FDFFF777FBDFF85814086073E0DFF845
:1020900044040068662801DB012000E00020DFF82E
:1020A00034140968962901DA012100E00021C0B248
:1020B000084217D0DFF81C040068643801F09CFD6A
:1020C000DFF85024DFF85034FFF77EFADFF84C24B5
:1020D000DFF84C3401F0A6FDFFF74CFBDFF80014ED
:1020E000086048E0DFF8EC030068982801DB012075
:1020F00000E00020DFF8DC130968B1F5C87F01DAE1
:10210000012100E00021C0B2084217D0DFF8C4036B
:102110000068963801F070FDDFF80824DFF8083415
:10212000FFF752FADFF80424DFF8043401F07AFDF7
:10213000FFF720FBDFF8A81308601CE0DFF894032A
:102140000068B0F5C97F16DBDFF888030068B0F5DA
:10215000C87001F051FDDFF8DC23DFF8DC33FFF756
:1021600033FADFF8D823DFF8D83301F05BFDFFF74F
:1021700001FBDB490860DA480068FFF7EDF904006D
:102180000D00D448006801F037FDDFF8B823DFF810
:10219000B833FFF719FA22002B0001F043FDFFF7D7
:1021A000E9FACF490860CE480068FFF7D5F9DFF8B3
:1021B0009C23DFF89C33FFF707FAFFF7DBFAC849E7
:1021C0000860C74890ED000ADFED400A80EE200A63
:1021D000DFED3F0A30EE200ABDEEC00A10EE100A15
:1021E000B3490870BE4890ED000ABCEEC00A10EE7C
:1021F000100A4FF47A71B0FBF1F201FB1200642176
:10220000B0FBF1F03030AA494870B54890ED000AB3
:10221000BCEEC00A10EE100A6421B0FBF1F201FB23
:1022200012000A21B0FBF1F03030A1498870AC48AF
:1022300090ED000ABCEEC00A10EE100A0A21B0FBB5
:10224000F1F201FB12000121B0FBF1F030309849AE
:10225000C87097482E210171A1480068FFF77CF9EA
:102260000022BC4BFFF7B0F901F050FD0A21B0FB92
:10227000F1F201FB120030308D4948719848006836
:10228000FFF76AF90022B44BFFF79EF901F03EFD1B
:102290000A21B0FBF1F201FB120030308449887151
:1022A0008F480068FFF758F90022AC4BFFF78CF914
:1022B00001F02CFD0A21B0FBF1F201FB12003030DD
:1022C0007B49C8717A480021017230BD00007A4410
:1022D0000000404280B57E48FEF7C8FFA049088054
:1022E0009F48008800EE100AB8EE400A7C48D0ED06
:1022F000000A30EE600A9B4880ED000A994890ED94
:10230000000ADFED460A80EE200ADFED450A30EED6
:10231000200ABDEEC00A10EE100A58490870914814
:1023200090ED000ABCEEC00A10EE100A4FF47A716C
:10233000B0FBF1F201FB12006421B0FBF1F0303090
:102340004E494870874890ED000ABCEEC00A10EE76
:10235000100A6421B0FBF1F201FB12000A21B0FB6C
:10236000F1F03030454988707E4890ED000ABCEEAF
:10237000C00A10EE100A0A21B0FBF1F201FB1200B4
:102380000121B0FBF1F030303C49C8703B482E21B0
:10239000017174480068FFF7DFF800226D4BFFF70A
:1023A00013F901F0B3FC0A21B0FBF1F201FB1200BA
:1023B0003030324948716B480068FFF7CDF8002291
:1023C000654BFFF701F901F0A1FC0A21B0FBF1F226
:1023D00001FB120030302949887162480068FFF71C
:1023E000BBF800225D4BFFF7EFF801F08FFC0A21EC
:1023F000B0FBF1F201FB120030302049C8711F48D8
:1024000000210172574890ED000AB5EE400AF1EE46
:1024100010FA01D800F02EFE01BD000000007A4441
:102420000000404218ED00E000E400E014E000E0AD
:1024300018E000E010E000E0A017002030180020B5
:102440000004024000080240000002401218002070
:10245000EC1700208C520008945200089C5200088F
:10246000A4520008AC520008B4520008BC52000844
:10247000745100084017002014180020BC170020D9
:102480009101000810510008601700200452000854
:102490001618002084510008C4520008311800208A
:1024A000DC170020F4170020CC520008D45200089A
:1024B000B017002024510008385100084C51000882
:1024C000DC5200086051000820160020E452000889
:1024D000C8170020E0170020E4839ECDAACFFD3F5F
:1024E000E4170020BEC1172653050440A69BC42054
:1024F000B0F23B40D200DE02090A0640EA2631086B
:10250000AC7C4A40ED9E3C2CD41A0940B6F3FDD475
:1025100078215440273108AC1CDA094004560E2DAE
:10252000B2AD6D4088855AD3BCE30D40F853E3A5A6
:102530009BF77B40E9482EFF217D0F403208AC1C01
:102540001A96954048E17A14AE47E13F1F85EB515A
:10255000B81EF13F000024400000594000408F4069
:1025600010180020E817002000B585B001210220D6
:10257000FEF7A8FD01214FF48040FEF7C1FD0120C8
:102580008DF8040000208DF8060003208DF805006A
:1025900000208DF807004FF48070009000A9DFF84C
:1025A000A803FEF7CDFD4FF40070009000A9DFF8FE
:1025B0009803FEF7C5FD00208DF8040003208DF878
:1025C000050000208DF807000120009000A9DFF829
:1025D0007803FEF7B5FD4FF48060009000A9DFF8A6
:1025E0006803FEF7ADFD01211020FEF76BFD08200A
:1025F000009000A9DFF85403FEF7A2FD1020009020
:1026000000A9DFF84803FEF79BFD0021012001F03F
:10261000CFF90120029000208DF80C0010208DF8D9
:102620000D0001208DF80E0002A801F0EBF90A213F
:10263000012001F0BDF94FF48060029000208DF878
:102640000C0010208DF80D0001208DF80E0002A85E
:1026500001F0D8F9DFF8F80206210170DFF8F00286
:102660000F214170DFF8E8020F218170DFF8E002EE
:102670000121C170DFF8D802FEF72FFFDFF8D0028A
:1026800028210170DFF8C8020E214170DFF8C00276
:102690000F218170DFF8B8020121C170DFF8B002AC
:1026A000FEF71BFFDFF8AC0200218170DFF8A40207
:1026B0000021C1700821DFF89402FEF796FDDFF8D3
:1026C000941208711021DFF88402FEF78EFDDFF806
:1026D00084124871DFF87C0201218171DFF87402F5
:1026E0000121C17105B000BD80B5012001F0CEF916
:1026F000012806D1DFF85C0201218171012001F07F
:10270000D9F9012001F0C2F9012806D1DFF8480209
:1027100001210170012001F0CDF901BD80B5DFF884
:102720003402012181714FF4806001F0C3F901BDD1
:10273000C0B2022808DAC0B2DFF8182282189170FD
:10274000DFF810220123D3717047C0B2022812DAD9
:10275000C0B2DFF8001241188978002901D10121A7
:1027600000E00021C0B2DFF8EC2182189170DFF8A0
:10277000E4110122CA71704780B5DFF8D801807971
:1027800000284DD0DFF8CC01002181710121DFF854
:10279000B801FEF72AFDDFF8BC1108704FF4806124
:1027A000DFF8A401FEF721FDDFF8A8114870DFF87B
:1027B000A4010078012807D1DFF8A0018068DFF8C4
:1027C000A0118988018306E0DFF890018068DFF8B6
:1027D000901189884183DFF87C014078012807D176
:1027E000DFF87801C068DFF87811C988018306E056
:1027F000DFF86801C068DFF86811C9884183DFF835
:1028000054014378DFF84C010278DFF85811DFF803
:10281000580101F07FF9DFF85011002000F079FA3B
:10282000DFF83001C07900284ED0DFF82801002100
:10283000C171DFF8200182784FF48071DFF8080160
:10284000FEF7E0FCDFF80C01C2784FF40071DFF80E
:10285000F800FEF7D7FCDFF8FC008078012807D1EC
:10286000DFF8F8000068DFF8F8100988018306E057
:10287000DFF8E8000068DFF8E81009884183DFF836
:10288000D400C078012807D1DFF8D0004068DFF815
:10289000D0104988018306E0DFF8C0004068DFF807
:1028A000C01049884183DFF8AC00C378DFF8A4008A
:1028B0008278DFF8B810DFF8B00001F02BF9DFF80C
:1028C000A810002000F025FAFEF7FDFDDFF8A010AB
:1028D0000988401A652830DB0821DFF87000FEF710
:1028E00084FCDFF870100979C0B288420AD0002059
:1028F000FFF72BFF0821DFF85400FEF776FCDFF826
:10290000541008711021DFF84400FEF76EFCDFF868
:1029100044104979C0B288420AD00120FFF715FF60
:102920001021DFF82800FEF760FCDFF8281048715E
:10293000FEF7C9FDDFF83810088001BDC0B2DFF82E
:1029400014104018807870470004024000100240C4
:10295000F0170020D000002030180020A400002034
:10296000FC520008EC52000880170020F4520008C6
:102970001818002000B587B001210420FEF7A2FB43
:1029800001212020FEF7BCFB08220621DFF8940479
:10299000FEF73FFC08220721DFF88804FEF739FC28
:1029A00002208DF8080003208DF8090000208DF822
:1029B0000A0001208DF80B004020019001A9DFF8EA
:1029C0006404FEF7BDFB00208DF80B008020019011
:1029D00001A9DFF85004FEF7B3FB0121DFF848043A
:1029E000FEF7D4FC5FF4E13003900020ADF8100056
:1029F0000020ADF812000020ADF814000020ADF862
:102A000018000C20ADF8160003A9DFF81C04FEF72F
:102A100031FC4FF48060FEF75BFD47208DF800002D
:102A200000208DF8010000208DF8020001208DF8B3
:102A3000030000A8FEF751FD0121DFF8EC03FEF7CB
:102A400097FC012240F22551DFF8DC03FEF7B3FCCE
:102A500007B000BD30B5C1B000208DF80000DFF830
:102A6000CC030078002807D0022800F0958042D3DC
:102A7000032800F046814AE100A800F08AF9002806
:102A800026D09DF8000024281CD1DFF8A40300887C
:102A9000DFF8A0139DF800204254DFF8940300886B
:102AA000401CDFF88C130880DFF884030088B0F541
:102AB000805F03DBDFF8740303210170DFF86C0330
:102AC00001210170FEF7FFFCDFF86C13088011E0B4
:102AD000FEF7F9FC80B2DFF860130988401A652818
:102AE00008DBDFF8480303210170FEF7ECFCDFF898
:102AF000481308800BE100A800F04BF9002838D0FB
:102B0000DFF82C030088DFF82C139DF800204254D6
:102B1000DFF81C030088401CDFF8141308809DF8C0
:102B200000003B281FD1DFF808030088DFF80413FA
:102B300000224254DFF8F8020088401CDFF8F0124F
:102B40000880DFF8EC020088DFF8E8120022425427
:102B5000DFF8DC020088401CDFF8D4120880DFF8C0
:102B6000CC0202210170FEF7AEFCDFF8CC12088027
:102B700011E0FEF7A8FC80B2DFF8BC120988401A09
:102B8000652808DBDFF8A40203210170FEF79BFC37
:102B9000DFF8A4120880BAE0A64801F0CDF80500DD
:102BA000A44801F023F9A549A24801F005F9040061
:102BB000002C00F09E8001A9200001F0D8F805004B
:102BC000ADB2002D00F09580ADB201A800212954CE
:102BD0009DF80500612835D0722803D0F02800F058
:102BE000878086E096490DF1060000F071FF00280D
:102BF00004D101210020FFF79BFD22E091490DF156
:102C0000060000F065FF002804D100210020FFF736
:102C10008FFD16E08C490DF1060000F059FF0028E9
:102C200004D101210120FFF783FD0AE087490DF15E
:102C3000060000F04DFF002803D100210120FFF71E
:102C400077FD56E082490DF1060000F041FF0028B3
:102C500002D100F006FA4AE07E490DF1060000F0CC
:102C600037FF002802D100F005FA40E07A490DF163
:102C7000060000F02DFF002803D1002000F003FA29
:102C800035E076490DF1060000F022FF002803D15F
:102C9000012000F0F8F92AE071490DF1060000F07A
:102CA00017FF002803D1022000F0EDF91FE06D4965
:102CB0000DF1060000F00CFF002803D1032000F006
:102CC000E2F914E068490DF1060000F001FF002868
:102CD00003D1042000F0D7F909E064490DF10600A2
:102CE00000F0F6FE002802D1052000F0CCF900E04B
:102CF000FFE74E4803210170FEF7E5FB4E490880CF
:102D000005E04B480021018048480021017041B096
:102D100030BD38B504000D002B00A4B22200544988
:102D2000544800F0F7FE534801F006F80100C9B21C
:102D3000504800F003F800F016F831BD38B5040033
:102D40000D00EDB22A0021004B4801F090F84B48ED
:102D500005704B4800210170012240F22771324872
:102D6000FEF729FB31BD464800784449097888427E
:102D7000F9D3704743490978434A8854414909784F
:102D8000491CFF2291FBF2F302FB13113D4A117023
:102D9000704701003D4800783A4A1278904210D0BE
:102DA0003A480078384A805C087038480078401CFF
:102DB000FF2290FBF2F302FB1300344A1070012053
:102DC00000E00020704780B540F227711648FEF7FA
:102DD0001DFB012818D12A48007828490978884223
:102DE0000CD227480078411C254A1170C0B22249F4
:102DF000415C89B20C48FEF7D6FA05E0002240F2A9
:102E000027710948FEF7D7FA40F225510648FEF728
:102E1000FDFA012805D10448FEF7C9FAC0B2FFF750
:102E2000A9FF01BD00080240001401402F18002036
:102E30000E180020E00000200C180020645200084A
:102E4000A4510008B0510008BC510008C851000846
:102E5000D4510008E0510008EC5100086C52000801
:102E6000745200087C52000884520008F85100088F
:102E700098500008E0140020E01200202C180020D8
:102E80002B1800202D180020E01300202E18002001
:102E9000A84800787047A8480078002809D0022880
:102EA0000BD008D304280CD009D306280DD00AD3A0
:102EB0000DE0A2480CE0A2480AE0A24808E0A248BF
:102EC00006E0A24804E0A24802E0A24800E0002098
:102ED000704700B587B001210120FEF7F3F801210A
:102EE0005FF40030FEF7FDF8072202219A48FEF752
:102EF00090F9072203219848FEF78BF902208DF8FC
:102F0000080003208DF8090000208DF80A00012038
:102F10008DF80B000420019001A98F48FEF710F9ED
:102F20000820019001A98C48FEF70AF901218B487D
:102F3000FEF72CFA4FF4167003900020ADF8100045
:102F40000020ADF812000020ADF814000020ADF80C
:102F500018000C20ADF8160003A98048FEF78AF986
:102F60004FF48060FEF7B4FA26208DF800000020B0
:102F70008DF8010000208DF8020001208DF803007B
:102F800000A8FEF7AAFA01217448FEF7F1F9012220
:102F900040F225517148FEF70EFA00F06BF807B0C9
:102FA00000BD6F4909786F4A1278914258D06C4938
:102FB00009784A1C6A4B1A70C9B26B4A895C0800CE
:102FC0006A490978002903D0022927D013D3E8E7FA
:102FD000C0B2FE280ED1664900220A706449097801
:102FE000644A885462490978491C614A11705F49F2
:102FF00001220A70D5E7C0B2FE280ED15C4900223A
:103000000A705B4909785B4A885459490978491C18
:10301000574A1170554902220A70C2E7544909788B
:10302000544A885452490978491C514A11705049F0
:1030300009781E2913D14F490979C90703D53D499C
:1030400001220A7002E03B4900220A70494949798D
:10305000C9B20909384A1170444900220A70A0E730
:10306000704780B50821444800F01AF84348012110
:10307000017001BD80B50821414800F011F83F48BA
:103080000021017001BD10B504000821E4B23D48E3
:1030900010EBC40000F004F838480021017010BDA6
:1030A00038B504000D00EDB22A002100364800F0CA
:1030B000DEFE36480570364800210170012240F2DC
:1030C00027712648FEF777F931BD10B540F2277118
:1030D0002248FEF79BF9012818D12D4800782B498A
:1030E000097888420CD22A480078411C284A11707D
:1030F000C0B22549415C89B21848FEF754F905E091
:10310000002240F227711548FEF755F940F225518B
:103110001248FEF77BF901280AD112480478601C96
:10312000104908700D48FEF742F9E4B20E496054A8
:1031300010BD000028180020DC0000201C520008F0
:10314000245200082C520008345200083C52000857
:10315000445200084C520008000002400044004065
:103160002718002026180020E01100202918002030
:103170002A1800202017002054520008231800208D
:103180005C52000874000020E01000202518002088
:103190002418002000B587B001210120FDF792FF1F
:1031A00001215FF40020FDF79CFF082200217B48ED
:1031B000FEF72FF8082201217848FEF72AF80220AE
:1031C0008DF8080003208DF8090000208DF80A0012
:1031D00001208DF80B000120019001A96F48FDF737
:1031E000AFFF0220019001A96C48FDF7A9FF012162
:1031F0006B48FEF7CBF85FF4E13003900020ADF8A8
:1032000010000020ADF812000020ADF814000020DE
:10321000ADF818000C20ADF8160003A96048FEF7C1
:1032200029F84FF48060FEF753F934208DF8000040
:1032300000208DF8010000208DF8020001208DF89B
:10324000030000A8FEF749F901215548FEF790F860
:10325000012240F225515248FEF7ADF807B000BDFB
:1032600010B55048007850490978884218D04D4828
:103270000078411C4B4A1170C0B24C49405C0400BC
:10328000E4B2612C03DBE4B27B2C00DA203C48483A
:103290000078411C464A1170C0B246494454E0E7E8
:1032A000454800784249097888420AD04048017868
:1032B000404800F007F800F01AF800F022F800F09B
:1032C0005FF810BD38B504000D00EDB22A002100F2
:1032D000384800F0CCFD36480570374800210170B1
:1032E000012240F227712E48FEF765F831BD3248C1
:1032F00000782F4909788842F9D370472F48007821
:1033000070472E480121017070472C480021017040
:10331000264800210170704710B540F227712048FF
:10332000FEF774F8012818D123480078204909785D
:1033300088420CD220480078411C1F4A1170C0B24C
:103340001C49415C89B21648FEF72DF805E00022C1
:1033500040F227711248FEF72EF840F2255110482E
:10336000FEF754F801280AD10F480478601C0E4972
:1033700008700B48FEF71BF8E4B20C49605410BD0E
:103380000B48002101700C48002101700548002104
:1033900001700548002101707047000000000240E4
:1033A000004C00402118002020180020201600208A
:1033B0001F180020E01500201E18002022180020F1
:1033C00080B500F05BF8DFF86405402101800A2039
:1033D00000F0DEFADFF85805402101800A2000F0F5
:1033E000D7FADFF848054021018000F061F800209D
:1033F00000F005F9102000F002F9402000F0FFF87D
:10340000CF21812000F0D7F8A12000F0F8F8C820E3
:1034100000F0F5F8A42000F0F2F8A62000F0EFF894
:103420003F21A82000F0C7F88A21AD2000F0C3F8A2
:10343000AF2000F0E4F80021D32000F0BCF86121B7
:10344000D52000F0B8F80021D82000F0B4F81221FF
:10345000DA2000F0B0F80021DB2000F0ACF82221E7
:10346000D92000F0A8F814218D2000F0A4F8002144
:10347000202000F0A0F800F076FA01BD00B583B07E
:1034800001210820FDF71EFE4020009001208DF84C
:10349000040000208DF8060003208DF805000020B0
:1034A0008DF8070000A9DFF88C04FDF749FE07BD81
:1034B00000B587B001215FF40010FDF712FE012175
:1034C0000220FDF7FFFDC020009002208DF80400CF
:1034D00002208DF8050001208DF8060001208DF8EE
:1034E000070000A9DFF85004FDF72AFE0422062198
:1034F000DFF84404FDF78DFE04220721DFF83804CD
:10350000FDF787FEDFF8340402900020ADF80C00D0
:103510004BF6FF70ADF80E000020ADF810004FF430
:103520008060ADF812004FF48040ADF8140002A99D
:10353000DFF80C0400F0A6FC0121DFF8040400F021
:1035400021FD07B000BD70B504000D0016005FF44A
:103550000031200000F06AFD0028F8D10121200090
:1035600000F01EFDDFF8DC13200000F043FD002812
:10357000F8D03200D2B22900C9B2200000F02CFDF0
:10358000F6B2002E06D1DFF8C013200000F032FDA5
:103590000028F8D070BD38B504000D002900C9B26C
:1035A000200000F024FDDFF8A413200000F022FD2D
:1035B0000028F8D031BD38B504000D000022782174
:1035C000DFF87C03FFF7BFFF8021DFF87403FFF70C
:1035D000E2FF2100C9B2DFF86803FFF7DCFF8021BA
:1035E000DFF85C03FFF7D7FF2900C9B2DFF850030B
:1035F000FFF7D1FFDFF8480300F0AEF931BD10B599
:10360000040000227821DFF83803FFF79CFF8021B7
:10361000DFF82C03FFF7BFFF2100C9B2DFF820035A
:10362000FFF7B9FFDFF8180300F096F910BD10B5E9
:10363000040000227821DFF80803FFF784FF40210F
:10364000DFF8FC02FFF7A7FF2100C9B2DFF8F002A4
:10365000FFF7A1FFDFF8E80200F07EF910BD2DE9C9
:10366000F04104000D001600E4B2202C02DBE4B2AD
:10367000812C01DB20200400E4B2B4F120000621FB
:1036800048438046EDB215F00F0006214843123042
:10369000070017F00F00FFF7B2FFFFB23809103034
:1036A000C0B2FFF7ACFF16F007000700B7F15000FB
:1036B000C0B2FFF7A4FFDFF8980218F80000FFF788
:1036C000B6FF18F10108DFF8880218F80000FFF7CC
:1036D000AEFF18F10108DFF8780218F80000FFF7D4
:1036E000A6FF18F10108DFF8680218F80000FFF7DC
:1036F0009EFF18F10108DFF8580218F80000FFF7E4
:1037000096FF18F10108DFF8480218F80000FFF7EB
:103710008EFF18F10108E320FFF771FFBDE8F0818B
:1037200070B504000D0016003078002814D02A006F
:10373000D2B22100C9B23078FFF791FF761C641C29
:10374000E4B2102CF0DB6D1C00200400EDB2082D5B
:10375000EADB00200500E7E770BD2DE9F14F88B0F6
:103760000C0015001E00129FDDF84C80DDF8509013
:10377000320004A9280000F0A4F800208DF8000011
:1037800004A900A800F075FC04A800F0D5FA381AC6
:103790008246BAF1010F19DB00208DF800000020ED
:1037A0008346D3450EDAB8F1000F04D15CA100A81E
:1037B00000F05FFC03E05BA100A800F05AFC1BF1E5
:1037C000010BEEE704A900A800F053FC00A800F0EC
:1037D000B3FA8246CA4539DBB9F1010F36DB00A9DD
:1037E00004A800F0B1F900218DF80010BAEB09032C
:1037F0000122010000A800F033F84BA1BAEB090048
:1038000000AA801800F035FC4B46BAEB0900421CB8
:1038100004A9BAEB09000DF1000C10EB0C00401CE0
:1038200000F01EF8002D07D0BAEB090000A94018DF
:1038300010F8010C202809D1BAF1030F06DBBAEB0E
:10384000090000A94018302100F8011C00AA21003D
:10385000C9B20898C0B2FFF763FF09B0BDE8F08FA6
:103860002DE9F04704000D0016001F00280000F0AD
:1038700063FA8146012E1FDBB1451DDB012F1BDBE7
:10388000B819401E814503DA19F10100824601E0B2
:10389000B8198246B046D04509DAB8EB060018EBF5
:1038A000050111F8011C015518F10108F3E7B8EB07
:1038B00006000021015501E0002020702000BDE835
:1038C000F087F0B40300080001000500002B03D5C9
:1038D0002D262E706D1C5B42002B03D130262E70DE
:1038E0006D1C0DE02900002B0AD093FBF2F602FBC1
:1038F0001636184FF65D2E706D1C93FBF2F3F2E74F
:1039000000262E706D1EA94207D20E7834002E7844
:103910000E702C70491C6D1EF5E7F0BC704700005E
:1039200030000000200000002E000000180C0240B3
:103930001A0C0240000C024000040240801A0600EB
:1039400000540040010003008200070084000700CB
:10395000884C00082450000810B504000121200004
:1039600000F02CFB10BD10B50020FFF748FE102022
:10397000FFF745FEB020FFF742FE00200400B4F53B
:10398000846F04DA0020FFF752FE641CF7E710BDD5
:1039900000231900814209D200231A0041F2883322
:1039A0009A4201D2521CF9E7491CF3E77047000024
:1039B00030B400220F2311F00304E4B2A400A340AA
:1039C0001A00C9B28B100E4C54F823309343C9B27D
:1039D0008C100B4D45F82430C9B28B10084C54F8AC
:1039E0002330C0B211F00304E4B2A40010FA04F4CE
:1039F0002343C9B28C10024D45F8243030BC7047C7
:103A00000838014000212D4A11008279002A36D061
:103A10002A4A126803689A43284B1A60284A126897
:103A200003689A43264B1A60027989180A6803686A
:103A30001A430A60234A126803689A43214B1A60AA
:103A4000214A126803689A431F4B1A604279102A70
:103A50000CD11C4A126803681A431A4B1A601A4A9E
:103A6000126803681A43184B1A600EE0134A1100DB
:103A7000427989180A6803681A430A6005E00279E6
:103A800089180A6803689A430A6070470100002099
:103A900000220A4B1B680B401A000C4B1B680B42A0
:103AA00004D0002A02D00123180001E000231800EE
:103AB000C0B270470549086070470000003C0140F3
:103AC000043C0140083C01400C3C0140143C0140D6
:103AD000820707D010F8012B11F8013BBAB19A42C6
:103AE000F6D014E002680B689A42A2F1013301BFDC
:103AF000934313F0803F50F8042F51F8043FF3D064
:103B000010F8012B11F8013B0AB19A42F8D0D01AF3
:103B1000704700000CB41CB5044604A801900A4686
:103B2000009401AB00A907487844183000F0B0FABF
:103B3000009900220A7000285CBF0098001B16BC88
:103B40005DF80CFB27DCFFFF5FEA000C830706D063
:103B500011F8013B00F8013BB3B18307F8D10A68C3
:103B6000B2F1013323EA020313F0803F02BF40F8B1
:103B7000042B51F8042FF3E711F8013B00F8013B47
:103B800013B111F8013BF9E76046704701B58B07A7
:103B900018D1121F21D351F8043BA3F1013C2CEAA8
:103BA000030C1CF0803C04BF40F8043BF1E79CFA96
:103BB0008CFCBCFA8CF1C1F118018B40CB4040F871
:103BC000043B13E0042A09D311F8013B521E00F80C
:103BD000013B5BB18B07F7D1DBE7121D5AB111F83E
:103BE000013B521E00F8013B03B1F8D111001CBF8C
:103BF000002200F0F1FD01BD010040F10780F44614
:103C0000404200F003F851F00041604709D0B0FA9B
:103C100080F18840C91CC1F58461090501EBD02100
:103C20004005704770B44FF0004591EA030C44BF63
:103C30006B4000F001BE00BF841A71EB030603D293
:103C4000001BB141121973414FF4001C1CEB410FD2
:103C500034BF7CEB430443E00C0DA4EB1356352E2C
:103C600050DC45EAC323DB0A45EAC121C912B6F19B
:103C700020050DDD63FA05F6EB4086EA03051242E6
:103C800018BF45F00105C01851F100010CD213E036
:103C900062FA06F5F2405540F3415A40B340F34012
:103CA0005A408018594107D349085FEA30005FEA5B
:103CB000350528BF45F0010501F58011420875F171
:103CC000004250F1000041EB045170BC4FF4001C65
:103CD0001CEB410F38BF70470020090D09057047E4
:103CE0001CEB410F10D252EA43060BD0BCEB410F44
:103CF00005D80C0DAB43661E342EB5DD02E0AB4398
:103D00008018594170BC704770BC7047400D40EA44
:103D1000C120490080F00D8040F00040490DA1F520
:103D20008061491C05D4D1F11F0154BFC840C017A0
:103D300070474FF00000704700F10103810704D085
:103D400010F8011B89B18107FAD10268B2F1013183
:103D5000914311F0803F04BF50F8042FF6E710F8AC
:103D6000011B11B110F8011BFBE7C01A704770B5B9
:103D700004000D002E00641C2078002819D014F8CF
:103D8000010C202803D014F8010C5B280FD12078F7
:103D900000F008FE00280AD0607800F003FE00283A
:103DA00005D06178207800F039F828706D1C641C0B
:103DB000E2E7A81BC0B270BD38B504000D00207842
:103DC000002811D021002800FFF782FE002805D12D
:103DD0002800FFF7B1FF0019401C06E02000FFF7A4
:103DE000ABFF0019441CEAE7002032BD10B5040007
:103DF0002000FFF7A1FF0100481E89B200290CD066
:103E000021782C2905D021783E2902D021783D291E
:103E100001D100212170641CEDE710BD38B504000C
:103E20000D00E4B2200000F0BDFD002805D0EDB289
:103E3000280000F0B7FD002801D1002016E0E4B210
:103E4000200000F0C3FD0400EDB2280000F0BEFD2C
:103E50000500E4B23A2C00D3E41F303C2401EDB25B
:103E60003A2D00D3ED1F303D2819C0B232BD70B5D8
:103E700004000D00160032002900200000F0B2FD01
:103E8000200070BD2DE9F04385B004000D005FF007
:103E9000000900260427DFF8E080A08881464FF65D
:103EA000C07010EA090900A8FDF78CF80298804656
:103EB0003248B8FBF0F0060056EA0909A4F804906D
:103EC00020884FF6FE710840208000208146286837
:103ED0002B4988420ED228684000B8FBF0F007005A
:103EE000BFB2042F01DA0420070057EA0909701C49
:103EF000208426E0E8884BF6FF71884206D12868C6
:103F000003214843B8FBF0F0070007E028681921B7
:103F10004843B8FBF0F0070057F48047380501D15B
:103F200057F0010757F4004050EA0909B6B24FF4C0
:103F3000967000FB06F04FF47A7190FBF1F0401C94
:103F40002084A4F81C90208850F001002080208854
:103F500081464FF6F53010EA0909A88869890843B7
:103F600050EA0909A4F80090A8892989084320810A
:103F700005B0BDE8F083000000127A0040420F0057
:103F8000A1860100C9B2002904D0028852F00102C2
:103F9000028004E002884FF6FE731A4002807047E8
:103FA000C9B2002904D0028852F48072028004E071
:103FB00002884FF6FF631A4002807047C9B2002999
:103FC00004D0028852F40072028004E002884FF6A6
:103FD000FF531A4002807047D2B2002A02D051F03B
:103FE000010101E011F0FE01C9B201827047C9B2BE
:103FF0000182704770B402000023002400250020D5
:10400000968A3400168B35002D0455EA04063602D4
:10401000360A330011EA03068E4202D1012630002F
:1040200001E000263000C0B270BC704782B00200D0
:104030000020002301930023009300920B0F0193B3
:104040000902090A019B002B03D0009B1433009343
:1040500003E0090C009B18330093009B1B680B4284
:1040600002D00123180001E000231800C0B202B002
:104070007047024600E0521C1378002BFBD111F868
:10408000013B137012F8013B002BF8D17047000080
:104090002DE9F04F80460FF2287095B014461D466A
:1040A000D0E90023CDE9132303AE00200391B061D2
:1040B0000DAF6FF0004900E054440020ADF802005D
:1040C00013AB4FF0FF3221460DF1020000F0C5FCAA
:1040D0008246BAF1010F08DA2078B0F1010A6AEBE2
:1040E0000A0A6FEA0A004FEAD07ABDF802002528D2
:1040F0000CBFAAF101035346012B07DB224602A99C
:10410000404600F045FB002800F1BD81BDF80200EB
:10411000252804D10020F0603061706105E000289E
:10412000CAD1B069B1E140F0010014F8011F2029A3
:10413000F9D023290DD02B2904D02D2906D03029E0
:104140000AD00CE040F0020080B2EEE740F004003C
:10415000FAE740F00800F7E740F01000F4E72A29FA
:104160000DD129680A1D2A6009683162002904D529
:10417000494240F00400316280B2641C11E0002129
:10418000316209E0316A494505D001EB810302EB58
:10419000430130393162641C2278A2F130010A29CE
:1041A000F0D321782E2903D04FF0FF31F1611CE0CC
:1041B00014F8011F2A2906D129680A1D2A60641CE7
:1041C0000968F16111E00021F16109E0F1694945F7
:1041D00005D001EB810302EB43013039F161641C2E
:1041E0002278A2F130010A29F0D3B0840FF2D8501E
:1041F000217800F043FC08B114F8010B8DF832006F
:104200009DF83200682804BF2078682803D1622016
:104210008DF83200641C0DA8B0602278252A13D0D6
:10422000582A3CD0632A00F0AA80642A18BF692A61
:104230006ED06F2A33D0702A28D0732A09D0752AFD
:1042400018BF782A2BD0BBE0F068411CF160252113
:10425000A0E09DF832006C28286813D0011D296069
:104260000068F2697060002A02D5FFF765FD07E07B
:104270000021FDF791FB00281ABF7168401AF06910
:104280003061A7E0011D2960026892E02868011DE5
:1042900029607821006802900DA870606BE09DF89D
:1042A00032306C2B08BF286811D0712B08BF2868EA
:1042B00002D028686A2B0AD1C01D20F007002860B0
:1042C000014601F108002860D1E9000102E0011D6A
:1042D000296000680290682B02D102A8008803E0E0
:1042E000622B02D102A80078029096F82400000701
:1042F0003CD50298002839D042F02000782835D1EA
:10430000F0683021C155401C411CF160C2552DE0C0
:104310009DF83200622802D0682806D00BE0286899
:10432000011D296090F9000009E02868011D29603D
:10433000B0F9000003E02868011D296000680290C0
:10434000002804D5F068411CF1602D210DE0B08CEF
:10435000810704D5F068411CF1602B2105E0C007FE
:1043600004D5F068411CF1602021C155F0680DA909
:1043700040187060114602A800F0A3F92AE09DF8E9
:1043800032006C2808D0F068411CF16029680A1DD1
:104390002A600968C1551DE02868011D296001AA2D
:1043A0000068ADF804000020ADF806004FF0FF30C3
:1043B000F06102A9404600F06BF800280AD562E0DF
:1043C000F068411CF1602521C1551AB1F068411C0B
:1043D000F160C255306AF168401A7169401A31695A
:1043E000A0EB010A96F82400641C400711D4202099
:1043F0008DF800004FF0000B09E0012300AA02A98C
:10440000404600F0C5F900283DD10BF1010BD34522
:10441000F3DBF3680DAA02A9404600F0B9F990BB9E
:1044200030208DF800004FF0000B7069019008E01B
:10443000012300AA02A9404600F0AAF918BB0BF11B
:10444000010B01988345F3DB3369726802A940468A
:1044500000F09EF9B8B996F8240040077FF52DAE1C
:1044600020208DF800004FF0000B01E00BF1010B54
:10447000D345BFF622AE012300AA02A9404600F0B0
:1044800087F90028F2D04FF0FF3015B0BDE8F08F6B
:104490002DE9F04F0F4695B03C6A83469146002CBB
:1044A00048BF6FF0004400F0F4FA796A40180190B8
:1044B0000FF21C32D2E90001CDE9030197F8280080
:1044C000400702D40198412805D240200DF1140A7A
:1044D0000190002507E000F0E1FA5FEA000AF8D158
:1044E000D1E7A4EB0804012C76DBB9F8001003AA8D
:1044F0000DF1010000F02AFB804600287DD4B9F8B8
:10450000000010B9B8F1010877D4444564DB38697C
:10451000019908EB0002914250D27D624042B96994
:10452000401A7969451A97F8280040070FD42020CF
:104530008DF80000002608E0012300AA39465846FD
:1045400000F026F9002858D1761CAE42F4DB3B6916
:1045500052463946584600F01BF900284DD130200C
:104560008DF800000026B869029008E0012300AA37
:104570003946584600F00CF900283ED1761C0298C6
:104580008642F3DB7B69BA683946584600F000F989
:1045900098BB97F8280040070ED520208DF8000022
:1045A000002607E0012300AA3946584600F0F0F83B
:1045B00018BB761CAE42F5DB00253D6142463869EA
:1045C0000DF10101504400F00DFA386940443861A2
:1045D00039F8020B002884D1786A3969401AB96920
:1045E000401A7969A0EB010897F82800400719D410
:1045F00020208DF80000A94612E04FF0FF3558E06A
:10460000012400AE16F8011B7868D84778600028AE
:10461000F3D0F869401CF861641EF3D109F1010977
:10462000C145EDDB3B6952463946584600F0B0F8CB
:104630000028E2D130208DF80000A946B869019029
:104640000FE0012400AE16F8011B7868D8477860A7
:104650000028D2D0F869401CF861641EF3D109F13A
:10466000010901988145ECDB7B69BA6839465846F7
:1046700000F08EF80028C0D197F82800400716D522
:1046800020208DF80000A9460FE0012400AE16F8A6
:10469000011B7868D84778600028AED0F869401CC4
:1046A000F861641EF3D109F10109C145EDDB3D61FB
:1046B0007D6205A882451CBF504600F055FA284689
:1046C000E3E6F0B4C2686F2908BF082405D041F0C2
:1046D0002003782B14BF0A241024066818233746B9
:1046E000642918BF692902D1002E48BF7F425FB9F3
:1046F000056A4DB9082C27D190F82810090723D551
:1047000030211723D1751FE0B7FBF4F604FB1677B1
:1047100030375D1EFFB22B463A2FA4BFA1F1510CDA
:104720006744AF54370003D085689E18B542EBD379
:10473000082C09D190F82810090705D5995C302973
:1047400002D05B1E30219954C3F1180141619A18BF
:104750008260026A914208DA511A81614FF6EF7263
:10476000018D11400185F0BC7047002A0ED590F8EC
:10477000282002F01402102A08D1426A0369D21AD2
:104780008369D21A531A012BA8BF8361F0BC70470A
:10479000F8B504460D4616461F46002004E0E869B9
:1047A000401CE8617F1E002047B116F8011B6868B5
:1047B000A04768600028F2D14FF0FF30F2BD000042
:1047C0000000000000000000686C747A4C000000DB
:1047D0000000000000000000401810F0030308D0A3
:1047E000C91A1FD3DB0748BF00F8012D28BF20F8E6
:1047F000022D130030B414461546103928BF20E9A5
:104800003C00FAD8490728BF20E90C0048BF40F80F
:10481000042D890028BF20F8022D48BF00F8012D83
:1048200030BC7047C91818BF00F8012DCB0728BF4E
:1048300000F8012D70470000841A71EB030604D2C2
:104840006E40001BB141121973414FF4001C1CEB68
:10485000410F34BF7CEB430684E00C0DA4EB1356F0
:10486000362E7DDC012E43DC45EAC32343EA525356
:1048700012BFD20292025B08240545EAC12141EA37
:104880005051D2EBC020994125D407D1B0FA80F61F
:1048900010FA06F164D00020203608E0B1FA81F663
:1048A000B140C6F1200220FA02F21143B0404FEAB3
:1048B000F474B4EB465434F001064FEA74040AD899
:1048C000D6F50016760D04F00044F04061FA06F2C9
:1048D0005040F1404840C00A40EA415021F00041B8
:1048E00028BF5FEA500550F1000044EBD12137E0CA
:1048F00045EAC323DB0A45EAC121C90AB6F120050E
:104900000EDD42EA0242120CC5F1200603FA06F659
:10491000EB4042EA06056D42984161F100010DE06D
:1049200062FA06F5F240554063FA06FC82EA0C0290
:10493000F3405A406D42904161EB030111F4801F36
:1049400005D1641E620502D06D004041494121F449
:104950008011430875F1004350F1000041EB045110
:1049600070BC70471CEB410F15D223F0004352EA94
:1049700043060BD04FEA4C0CBCEB410F04D80C0D96
:10498000661E342EB7DDEBE7801A994150EA4106E6
:1049900008BF0021E4E708BF1CEB430F28BF6FF0FE
:1049A0000001DDE710B50400612C01DB672C08DB9A
:1049B000412C01DB472C04DB200000F015F9002816
:1049C00001D0012000E00020C0B210BD10B50446A7
:1049D0000120FDF713F8A4F161001A2838BF203C2C
:1049E000204610BD62B38B0708D0521E11F8013B60
:1049F00000F8013B00F024808B07F6D1830740F0DC
:104A0000208000BF103A07D330B4B1E83810103A14
:104A1000A0E83810F9D230BC530724BFB1E8081021
:104A2000A0E8081044BF51F8043B40F8043BD2070B
:104A300024BF31F8022B20F8022B44BF0B780370FF
:104A40007047083A07D3B1E80810083A40F8043B29
:104A500040F804CBF7D25307E4E7F8B504460D4617
:104A600016461F46FCF7D3FF3B46324629462046F2
:104A700001B0BDE8F04000F0CEB800000278C9B245
:104A80008A421AB11CBF10F8012FF9E718BF0020A5
:104A9000704780B5FCF7BBFF012002BD70B505462D
:104AA00005F10F00C408E400C046C046A54232D25A
:104AB000082C04D2082402E0083000F055F82248FF
:104AC000026811000CD1011D0A6802B31368A342E9
:104AD00038BF111DF8D310E01D68A5420DD2191D75
:104AE0000B68002BF8D11268011D00E0191D0B683E
:104AF00093420CD01D68A542F8D361B10D682A68B5
:104B0000A2F10803A3420AD26A680A600FE000F02B
:104B1000A5F80028D0D1C046C046002070BD63195A
:104B20000B60121B6E685E600B681A602C6009686F
:104B300000291DBF4A68002A091D00210160C046E6
:104B4000C04605F1080070BDD417002070B50446BA
:104B50000D461646FCF75BFF324629462046BDE867
:104B6000704000F04BB8000000B9704710B5A0F1DC
:104B700008042068082833D310F0070F30D1C0464E
:104B8000C0461848416809B18C4203D26160446054
:104B900017E019464B680BB1A342FAD30A685318C1
:104BA0009C421BD3A34204D123689A180A600C4686
:104BB00007E04A681AB123681B199A420ED3626053
:104BC0004C60616851B1226813198B4206D10023F1
:104BD000036008688018206048686060C046C0466E
:104BE00010BD0000D4170020302803DB3A2801DA7A
:104BF000012000E00020C0B27047000030B430B99E
:104C00000FF24800D0E90045C2E900451BE0017001
:104C1000012030BC704730B431B90FF23800D0E910
:104C20000045C3E900450EE01AB930BC6FF0010041
:104C3000704708B10A7802800978481E804130BC6C
:104C4000C043C00F7047002030BC70470000000018
:104C50000000000000000000000000000749086894
:104C600008B1002070470648C008C0000860054928
:104C7000C908C900091A0160704700BF0818002060
:104C80003F20002038280020000000000000000025
:104C9000004F000000000700070000147F147F147D
:104CA00000242A7F2A120023130864620036495523
:104CB000225000000503000000001C2241000000FB
:104CC00041221C000014083E08140008083E080891
:104CD000000050300000000808080808000060606C
:104CE0000000002010080402003E5149453E00002B
:104CF000427F4000004261514946002141454B310D
:104D0000001814127F10002745454539003C4A49D8
:104D1000493000017109050300364949493600064A
:104D20004949291E000036360000000056360000B2
:104D3000000814224100001414141414000041222D
:104D4000140800020151090600324979413E007EF3
:104D50001111117E007F49494936003E41414122EF
:104D6000007F4141221C007F49494941007F0909D8
:104D70000901003E4149497A007F0808087F000088
:104D8000417F4100002040413F01007F0814224143
:104D9000007F40404040007F020C027F007F0408FB
:104DA000107F003E4141413E007F09090906003E57
:104DB0004151215E007F0919294600464949493180
:104DC0000001017F0101003F4040403F001F2040A3
:104DD000201F003F4038403F006314081463000761
:104DE0000870080700615149454300007F414100B8
:104DF0000015167C1615000041417F0000040201D9
:104E00000204004040404040000001020400002035
:104E100054545478007F4844443800384444442073
:104E200000384444487F00385454541800087E0920
:104E30000102000C5252523E007F08040478000028
:104E4000447D4000002040443D00007F1028440085
:104E50000000417F4000007C04180478007C0804B6
:104E60000478003844444438007C141414080008C2
:104E70001414187C007C080404080048545454207E
:104E800000043F444020003C4040207C001C204067
:104E9000201C003C4030403C004428102844000CBA
:104EA0005050503C004464544C44000008364100CB
:104EB0000000007F00000000413608000008082ABA
:104EC0001C0800081C2A080800000007050700004D
:104ED00080B54848006850F470004649086046486C
:104EE000006850F001004449086044480021016016
:104EF00041480068424908403F49086041484249EA
:104F000001603D48006830F480203B4908603F481C
:104F10000021016000F005F83D485FF0006101608C
:104F200001BD82B00020019000200090324800684E
:104F300050F48030304908602F48006810F4003089
:104F400000900198401C01900098002803D101981E
:104F5000B0F5A06FF0D128480068800302D5012089
:104F6000009001E000200090009801283ED12948DF
:104F7000006850F08050274908602748006850F4C6
:104F80004040254908601D481C49096801601B48CC
:104F9000006850F40040194908601848006850F44F
:104FA000A0501649086017481C4901601248006863
:104FB00050F08070104908600F4800688001FBD5F0
:104FC000174840F2057101600C48006880088000B5
:104FD0000A4908600948006850F002000749086063
:104FE0000648006810F00C000828F9D102B070479C
:104FF0000000000088ED00E0003802400838024060
:10500000FFFFF6FE04380240103000240C38024046
:1050100008ED00E04038024000700040195440079D
:10502000003C024030313233343536373839414272
:10503000434445464748494A4B4C4D4E4F505152C8
:10504000535455565758595A0000000010B5074997
:1050500079441831064C7C44163404E00A68081D73
:10506000511888470146A142F8D110BD0800000040
:105070002800000033C5FFFF58170000E0000020A3
:1050800000000000F7C3FFFFE0000000E4030000A1
:10509000000000200000000061624170692073651B
:1050A0006E642073747220256420222573220A0DF9
:1050B000000000004EF68851CEF20001086840F46E
:1050C000700008604FF00070E1EE100A70470000B9
:1050D00000F009F8002801D0FFF7B8FF0020FCF726
:1050E000E0FC00F002F80120704700F001B8000079
:1050F0000746384600F002F8FBE7000080B5C046DE
:10510000C046024A11001820ABBEFBE72600020091
:105110006225642C25642C25642C25642C257300C1
:10512000000000004D65746572204E2F4320202042
:1051300020202020000000002020202020202020EF
:105140002020202020202020000000004169722023
:10515000537461747573203A204F4E200000000094
:1051600041697220537461747573203A204F46462A
:10517000000000006125642C25642C302C30000ACE
:10518000000000004D6574657220494420253037C9
:10519000640000000148804701480047D14E0008E4
:1051A00011520008315F5345545F4F4E000000001C
:1051B000315F5345545F4F4646000000325F534510
:1051C000545F4F4E00000000325F5345545F4F461E
:1051D00046000000504F5745525F4F4E0000000000
:1051E000504F5745525F4F464600000046414E5FC4
:1051F0004155544F0000000046414E5F5455524205
:105200004F0000004D5520427261696E00000000A1
:10521000C046C046FFF74EFFFFF75AFF4175746F57
:10522000202020004C6F7720202020004D656469ED
:10523000756D2000486920202020200048694869B9
:1052400020202000547572626F2020004F66662077
:10525000202020000106006C000188170106006C68
:10526000000049D77061796C6F61640046414E5F00
:105270004C4F000046414E5F4D45000046414E5F99
:105280004849000046414E5F324849004175746FFD
:10529000202020004C6F7720202020004D6564697D
:1052A000756D200048692020202020004869486949
:1052B00020202000547572626F2020004F66662007
:1052C0002020200050203D200000000052656D612C
:1052D000696E3A00436F73743A20000046616E2095
:1052E0003A000000506169643A200000642564259A
:1052F0006400000072256425640000000040040082
:1053000010000008FCF7D0B8FCF7CFB8FCF7CFB816
:10531000FCF7CEB8FCF7CDB8FCF7CCB8FCF7CBB8AF
:10532000FCF7CAB8FCF7C9B8FFF7FEBFFFF7FEBF2E
:10533000FFF7FEBFFFF7FEBFFFF7FEBFFFF7FEBFA1
:10534000FDF7D2B9FFF7FEBFFFF7FEBFFFF7FEBFC5
:10535000FFF7FEBFFFF7FEBFFFF7FEBFFFF7FEBF81
:10536000FFF7FEBFFFF7FEBFFFF7FEBFFFF7FEBF71
:10537000FFF7FEBFFFF7FEBFFFF7FEBFFFF7FEBF61
:10538000FFF7FEBFFFF7FEBFFFF7FEBFFFF7FEBF51
:10539000FFF7FEBFFFF7FEBFFFF7FEBFFFF7FEBF41
:1053A000FFF7FEBFFFF7FEBFFFF7FEBFFFF7FEBF31
:1053B000FFF7FEBFFFF7FEBFFFF7FEBFFFF7FEBF21
:1053C000FDF783BEFBF778BDFDF7A8B9FFF7FEBF79
:1053D000FFF7FEBFFFF7FEBFFFF7FEBFFFF7FEBF01
:1053E000FFF7FEBFFFF7FEBFFFF7FEBFFFF7FEBFF1
:1053F000FFF7FEBFFFF7FEBFFDF78EBFFFF7FEBF53
:10540000FFF7FEBFFFF7FEBFFFF7FEBFFFF7FEBFD0
:10541000FFF7FEBFFFF7FEBFFFF7FEBFFFF7FEBFC0
:10542000FFF7FEBFFFF7FEBFFFF7FEBFFFF7FEBFB0
:10543000FFF7FEBFFFF7FEBFFFF7FEBFFFF7FEBFA0
:10544000FFF7FEBFFDF7BFBCFFF7FEBFFFF7FEBFD4
:10545000FFF7FEBFFFF7FEBFFFF7FEBFFFF7FEBF80
:10546000FFF7FEBFFFF7FEBFFFF7FEBFFFF7FEBF70
:10547000000000000000000000000000000000002C
:10548000000000000000000000000000000000001C
:10549000000000000000000000000000000000000C
:1054A00000000000000000000000000000000000FC
:1054B00000000000000000000000000000000000EC
:1054C00000000000000000000000000000000000DC
:1054D00000000000000000000000000000000000CC
:1054E000000000000106006E0000E8170106006ED3
:1054F000000129D70106006E000269D60106006E80
:105500000003A8160106006E0004E9D40106006E2F
:105510000005281400040240000802400008024070
:105520000004024000000000010203040102030421
:1055300006070809005F9D5DC6C5C7605E9FA000A5
:1055400001010000FFFF0000000000000601000054
:04000005080052118C
:00000001FF
